:06000000020320020403CC
:03000B0002040BE1
:03001300020413D1
:03001B0002041BC1
:03002300020423B1
:03002B0002042BA1
:0300330002043391
:03003B0002043B81
:0300430002044371
:03004B0002044B61
:0300530002045351
:03005B0002045B41
:0300630002046331
:03006B0002046B21
:0300730002047311
:03007B0002047B01
:03008300020483F1
:03008B0002048BE1
:03009300020493D1
:03009B0002049BC1
:0300A3000204A3B1
:0300AB000204ABA1
:0300B3000204B391
:080320007581641200BB80FE30
:2000BB001202ACE5EFF56130E10375610212F800E58224FF9200D2827562007FFF208202DC
:2000DB0005628F06EE14FF70F4C296E56120E61630001374382562400D90FBFEE493F5C46E
:2000FB0075C30212040012010680FBC296120332AF82D296BF21028017BF22028012BF23F9
:20011B0002800DBF26028008BF29028003BF310FC007120332AE82D007BE2002800122BF03
:20013B002100500122EF24CE500122EF24DFFE240A83F582EE241583F583E473797C8F9B0C
:20015B00BEE8FF5F959B9B9B9B9B9B969901010101010101020102020202020202020202FC
:20017B009C75824E12032890FBFEE493F58212032802029C12F83602029C12F85D02029C0B
:20019B00120332AE828E63756400120332AE828E05E44263ED4264120332AE82BE20030283
:2001BB00029C22120332AF82C007120332AE82D007BE20028001228563828564830563E432
:2001DB00B5630205648F0812F86D02029C8563828564830563E4B56302056412F897120378
:2001FB002802029C120332E582FE24BF5001227D00C3ED9E5019ED2421F9C006C005C0016F
:20021B00120332E582D001D005D006F70D80E2C006120332AD82D006BD20697D00C3ED9E10
:20023B00505F8563828564830563E4B563020564ED2421F98708C006C00512F86DD005D0EE
:20025B00060D80D9120332AE82C006120332AD82D006BD202F7D00C3ED9E50258563828553
:20027B0064830563E4B563020564C006C00512F897120328D005D0060D80DC43EF1080016D
:20029B00220202A02275821212032875821002032875A700C2AFAFD974BF5FF5D975B64001
:2002BB0075B28F75A900758840758920758E08758D9675981275FF807E5E7F011EBEFF0106
:2002DB001FEE4F70F775EF0675A41075A70F75A41075A70075E10143D40C43A404AFA47411
:2002FB00F75FF5A4AFA474FB5FF5A443D56075A70F43A56075A700740F55E44407F5E4C291
:05031B008875E340229B
:20F8000090F7FEE493FFBF3D0B90F7FFE493FFBFC20280047F0080027F018F8222AE82E51A
:20F8200083FF54FC600574082F5002C322D32275B7A575B7F1227E007FF4C007C00612F822
:20F840002FD006D007758F038E828F8374FFF0758F00EF24FCFF54FC600280DE2212F82FC3
:20F86000758F0790000074FFF0758F0022AE82AF83C007C00612F81DD006D0075018C00772
:1CF88000C00612F82FD006D007758F018E828F83E508F0758F0022E493F5822286
:02FBFE0091FE76
:13032800AF8210990280FB8F992210980280FB859982223A
:00000001FF

