:0A04D20078007441F278057464F2BA
:2004E700AF828F06BE08028021BE0D028005BE7F36801775820A1242187801E224BAF5824D
:20050700E43400F583E4F0D201227801E2606A758208124218758220124218758208124215
:20052700187801E214F2227801E2B4100050448F82C007C0061269D0E582D006D0076039D0
:200547008F82C007C00612696AE582D006D00760055306DF80028F068E077801E2FE7801E2
:2005670004F2EE24BAF582E43400F583EFF08F82024218C2007801E4F222AF82BF2B02808F
:20058700047804E4F27804C3E2F5F0740495F0402C7804E275F003A49005A3730205C802A9
:2005A70005B20205B20205B90205C87804E22401F22278047404F278057464F2227804E4EF
:2005C700F278057464F2227805E2603B7805E214F27805E270317804E260087804E2B4047E
:2005E70026800678047401F222D2007804E4F29000BA7441F09000BB7454F09000BCE4F00D
:2006070078017402F2D20122E5812404F5817C007D007E007F007802E224BAF582E434003A
:20062700F583E0FBF582C007C006C005C004C0031264E7E582D003D004D005D006D00760C3
:200647006D9005FDECF0EDA3F0EEA3F0EFA3F090000AE4F5F0C003126668AF82AE83ADF030
:20066700FCD0038B027B00EA24D0FAEB34FFFBE58124FDF8A60208A603EB3395E008F6083A
:20068700F6E58124FDF8E62FF608E63EF608E63DF608E63CF6E58124FDF8860408860508CC
:2006A70086060886077802E22401F202061D8C828D838EF0EFC8E58124FCF581C822200120
:2006C70001227801E2B40200E433FF600302074E9000BAE0FEBE526F9000BBE0FEBE5467C6
:2006E70078027403F278017902C3E2F5F0E395F0501B7802E224BAF582E43400F583E0FEA0
:20070700BE2C0280087802E22401F280D87802E224BAF582E43400F583E0FEBE2C1C7802F4
:20072700E2FE780204F2EE24BAF582E43400F583E4F012060F124B87800690FFFF124B87B8
:200747007801E4F2C20122EF70699000BAE0FFBF41619000BBE0FFBF54599000BCE0FF60EB
:2007670023BF26028023BF2B028023BF49028023BF4F028028BF5002801EBF53028027BFA8
:200787005A2E80271207C1802A120A0F8025120AED80201207FF801B120AEA8016780574E6
:2007A70064F2C200800D12097E800843EF1080FE1207E07801E4F2C201227850E2C0E0082D
:2007C700E2C0E074BBC0E0746CC0E07480C0E0122C09E58124FBF581227850E2C0E008E215
:2007E700C0E074C4C0E0746CC0E07480C0E0122C09E58124FBF581229000BDE0FF6037BF80
:2008070030028032BF31028058BF3203020893BF33030208B9BF34030208E2BF35030209F6
:200827000BBF360302091DBF3703020920BF380302092302097B741EC0E0746FC0E074800B
:20084700C0E07850E2C0E008E2C0E074D0C0E0746CC0E07480C0E0122C09E58124F8F581E6
:20086700227433C0E0746FC0E07480C0E07850E2C0E008E2C0E074D0C0E0746CC0E07480C5
:20088700C0E0122C09E58124F8F58122744EC0E0E4C0E07850E2C0E008E2C0E074D9C0E0A9
:2008A700746CC0E07480C0E0122C09E58124F9F581227809E2FE7F00C006C0077850E2C0E4
:2008C700E008E2C0E074D9C0E0746CC0E07480C0E0122C09E58124F9F58122780AE2FE7F63
:2008E70000C006C0077850E2C0E008E2C0E074D9C0E0746CC0E07480C0E0122C09E58124BE
:20090700F9F581227F008F82C00712281ED0070FBF130040F122025C570242C17850E2F52C
:20092700F008E245F070207850E2C0E008E2C0E074E2C0E0746CC0E07480C0E0122C09E507
:200947008124FBF581802C12584B9202E433FE7F00C006C0077850E2C0E008E2C0E074F329
:20096700C0E0746CC0E07480C0E0122C09E58124F9F581220207E078027403F212060FACBB
:2009870082AD83AEF0FFBC130040030207E07802E224BAF582E43400F583E0FFBF3D028068
:2009A70036BF3F618C821224DDAB82AD83AEF0FFC003C005C006C0077850E2C0E008E2C077
:2009C700E07402C0E0746DC0E07480C0E0122C09E58124F7F58122EC602B7802E22401F2BB
:2009E700C00412060FAB82AD83AEF0FFD004783DEBF208EDF208EEF208EFF28C821222EBC0
:200A070050030207C10207E09000BDE0FFBF46028012BF54028053BF55028014BF570280DA
:200A270009020AE71227840207C11227410207C19005F3740CF0746DA3F07480A3F0900065
:200A4700BE75F00012656BE5828583F045F0701775B7A575B7F1758F0390F7FE74FFF0751D
:200A67008F0043EF1080FE0207E09005F37412F0746DA3F07480A3F09000BE75F000126514
:200A87006BE5828583F045F070057803E4F2229005F37413F0746DA3F07480A3F09000BE20
:200AA70075F00012656BE5828583F045F070077803E26401F2229005F37419F0746DA3F08E
:200AC7007480A3F09000BE75F00012656BE5828583F045F070077803E26402F2220207E028
:110AE7000207E00207E078027404F212060F0207E038
:206CBB005B25755D204F4B0A005B25755D204552524F520A005B25755D2025730A005B2509
:206CDB00755D2025750A005B25755D2053796E633A20426173650A005B25755D2053796E69
:206CFB00633A2025750A005B25755D20256C750A00504441544500003D52535349003D5419
:036D1B00444D00E4
:200AF800AF827E007D00AB08AC098F021FEA603B8B828C83E0FAA3AB82AC83ED2DF9ED30F0
:200B1800E714890009E8906E1E936EFDE9906E1E93F86AFE80D4890009E8906D1E93F86E54
:1B0B3800FDE9906D1E93F96AFE80BF8D07E4FDFCEE4205EC42078D828F832250
:206D1E000000102120423063408450A560C670E781089129A14AB16BC18CD1ADE1CEF1EF55
:206D3E00123102103273225252B5429472F762D693398318B37BA35AD3BDC39CF3FFE3DE15
:206D5E00246234430420140164E674C744A45485A56AB54B85289509E5EEF5CFC5ACD58DD5
:206D7E00365326721611063076D766F6569546B4B75BA77A97198738F7DFE7FED79DC7BC95
:206D9E0048C458E5688678A70840186128023823C9CCD9EDE98EF9AF89489969A90AB92B55
:206DBE005AF54AD47AB76A961A710A503A332A12DBFDCBDCFBBFEB9E9B798B58BB3BAB1A15
:206DDE006CA67C874CE45CC52C223C030C601C41EDAEFD8FCDECDDCDAD2ABD0B8D689D49D5
:206DFE007E976EB65ED54EF43E132E321E510E70FF9FEFBEDFDDCFFCBF1BAF3A9F598F7895
:206E1E00918881A9B1CAA1EBD10CC12DF14EE16F108000A130C220E3500440257046606754
:206E3E0083B99398A3FBB3DAC33DD31CE37FF35E02B1129022F332D2423552146277725614
:206E5E00B5EAA5CB95A88589F56EE54FD52CC50D34E224C314A004817466644754244405D4
:206E7E00A7DBB7FA879997B8E75FF77EC71DD73C26D336F2069116B0665776764615563494
:206E9E00D94CC96DF90EE92F99C889E9B98AA9AB584448657806682718C008E1388228A354
:206EBE00CB7DDB5CEB3FFB1E8BF99BD8ABBBBB9A4A755A546A377A160AF11AD02AB33A9214
:206EDE00FD2EED0FDD6CCD4DBDAAAD8B9DE88DC97C266C075C644C453CA22C831CE00CC1D4
:206EFE00EF1FFF3ECF5DDF7CAF9BBFBA8FD99FF86E177E364E555E742E933EB20ED11EF094
:200B530075B7A575B7F122D310AF01C3C0D0120B53758F0790000074FFF0758F00D0D092E8
:200B7300AF22D310AF01C3C0D0AE82AF83758F048E828F83E493FF758F008F82D0D092AFB3
:200B930022D310AF01C3C0D0AE82AF83C007C006120B53D006D007758F058E828F83780685
:0A0BB300E2F0758F00D0D092AF225F
:02F7FE003DC20A
:200BBD00AF83E5829000FEF0EFA3F09000FEE0FEA3E0FF9000FDE0FD7C008D027B001ABACD
:200BDD00FF011B8C007900C3E89AE964808BF063F08095F05046C007C006C005C0041262D3
:200BFD0060AA82D004D005D006D0078DF0EA84E5F02EFAE43FFB8A828B83E0F50AC005EC46
:200C1D002EF8E43FFD88828D83E0F98A828B83F088828D83E50AF00CD005809E22AF83E543
:200C3D0082900100F0EFA3F07F007807C3E2F5F0EF95F0500FEF24CBF582E43400F583EFE3
:200C5D00F00F80E6900100E0FEA3E0FF8E828F831262BA7807E2FF7E008F047D001CBCFF0C
:200C7D00011D8E027B00C3EA9CEB64808DF063F08095F05042C007C006126260AC82D0064A
:200C9D00D0078FF0EC84E5F024CBFCE43400FD8C828D83E0F50BC007EE24CBFAE43400FFE9
:200CBD008A828F83E0FB8C828D83F08A828F83E50BF00ED00780A2227808E224CBF582E43D
:200CDD003400F583E0F582227807E2F5F0E484E5F024CBF582E43400F583E0F58222780860
:200CFD00E2F58222E582900104F07808F2227808E2FE7F000EBE00010F78079005F9E2F042
:200D1D00E4A3F08E828F831265FFAE82AF837808EEF220030C78077908E2F5F0E484E5F0B2
:070D3D00F322A2049203223D
:06040000020479023944F8
:01040B0032BE
:0104130032B6
:01041B0032AE
:03042300023A8A10
:03042B00025D6906
:010433003296
:01043B00328E
:010443003286
:01044B00327E
:010453003276
:01045B00326E
:010463003266
:01046B00325E
:03047300025CDF49
:0304E40002047699
:03047600020D4430
:200D4400AFC47809EFF2AFC3780AEFF2120E0E12267040031227847582011224DDAC828C4A
:200D640082123C45120E887582061224DDAC82900125ECF07582071224DDAC82AD83AEF0D5
:200D8400FFEC4D4E4F24FF92067582051224DDAC82AD83AEF0FFEC4D4E4F24FF920575822E
:200DA4000E1224DDAC82AD83AEF0FFEC4D4E4F24FF9207122FBD40157437C0E0746FC0E060
:200DC4007480C0E0120DD4158115811581024C74906F5175F0801269E9E58124FCFFC0071F
:200DE400E58124FBF886820886830886F01229811581906F5C75F0801269E9D2AFD2AC9056
:200E040003E8125D6043EF1080FE75A700AFD974BF5FF5D975B28F75A90075B64075FF801D
:200E24007E5E7F011EBEFF011FEE4F70F775EF0675A41075A70F75A41075A70075E1014316
:200E4400E24043A5F575A70F43A5F5E5A675A6FF75A70075844075B00075850043B001D2A8
:200E64009475A700C289125E0F75B800D2AFC295D296D2EF75BCF975BA0075BB1B75D107D5
:200E840075E34022122FFC4015745DC0E0746FC0E07480C0E0120DD4158115811581780944
:200EA400E2B44302801C7809E2B4470280437809E2B48602806A7809E2B49103020F5102FC
:200EC4000F7E78177490F20874D1F20874CFF2087419F2781B7470F208745EF20874EAF26C
:200EE400087419F27823740AF27807740AF2020FB578177480F20874A1F2087403F2087436
:200F04001CF2781B74C0F20874E3F2087412F208741CF27823740AF27807740AF2020FB5EB
:200F24007817E4F20874A1F20874BCF2087433F2781B7440F20874E3F20874CBF2087433FC
:200F4400F27823740AF27807740AF28064781774C0F20874CAF2087489F2087436F2781BA2
:200F6400E4F2087428F2087450F2087437F278237414F278077432F280377817E4F208F25C
:200F840008F208F2781BE4F208F208F208F27823E4F27809E2FA7B00C002C0037475C0E0AB
:200FA400746FC0E07480C0E0120DD4E58124FBF58175820A1224DDAA82AB83AEF0FFEA4BE8
:200FC4004E4F601175820A1224DDAC82AD83AEF0FF7807ECF27582081224DDAC82AD83AE75
:200FE400F0FFEC4D4E4F60377582081224DDAC82AD83AEF0FF9005FDECF0EDA3F0EEA3F015
:20100400EFA3F09003E8E4F5F01266687817C0E0E582F208E583F208E5F0F2D0E008F2754E
:2010240082091224DDAC82AD83AEF0FFEC4D4E4F60377582091224DDAC82AD83AEF0FF9008
:2010440005FDECF0EDA3F0EEA3F0EFA3F09003E8E4F5F0126668781BC0E0E582F208E5830B
:20106400F208E5F0F2D0E008F27582041224DDAC82AD83AEF0FFEC4D4E4F601175820412A4
:2010840024DDAC82AD83AEF0FF7823ECF27823E2FB7D007E007F007841E4F208F208F2085A
:2010A400F278457414F208E4F208F208F28B828D838EF0EF1228C5AC827823ECF27807E2A0
:2010C400FC7D007E007F0078417401F208E4F208F208F278457432F208E4F208F208F28CF1
:2010E400828D838EF0EF1228C5AC82AD83AEF0FF7807ECF27809E2B44302801E7809E2B485
:2011040047030211AD7809E2B4860302123E7809E2B491030212CF02135D78417480F20828
:201124007423F20874ADF2087418F27845E4F208740BF208746BF208741BF27817E2F5822B
:2011440008E2F58308E2F5F008E21228C57817C0E0E582F208E583F208E5F0F2D0E008F20E
:2011640078417480F2087423F20874ADF2087418F27845E4F208740BF208746BF208741B1E
:20118400F2781BE2F58208E2F58308E2F5F008E21228C5781BC0E0E582F208E583F208E578
:2011A400F0F2D0E008F202137C78417480F2087474F20874D2F208741AF278457480F2081A
:2011C40074CEF2087434F208741DF27817E2F58208E2F58308E2F5F008E21228C57817C059
:2011E400E0E582F208E583F208E5F0F2D0E008F278417480F2087474F20874D2F208741A80
:20120400F278457480F20874CEF2087434F208741DF2781BE2F58208E2F58308E2F5F008A7
:20122400E21228C5781BC0E0E582F208E583F208E5F0F2D0E008F202137C78417440F2086A
:2012440074B6F208749AF2087432F278457440F2087410F20874FDF2087434F27817E2F572
:201264008208E2F58308E2F5F008E21228C57817C0E0E582F208E583F208E5F0F2D0E0085D
:20128400F278417440F20874B6F208749AF2087432F278457440F2087410F20874FDF208D9
:2012A4007434F2781BE2F58208E2F58308E2F5F008E21228C5781BC0E0E582F208E583F29C
:2012C40008E5F0F2D0E008F202137C7841E4F20874A1F20874BCF2087433F2784574C0F2B4
:2012E4000874F7F20874BAF2087437F27817E2F58208E2F58308E2F5F008E21228C5781727
:20130400C0E0E582F208E583F208E5F0F2D0E008F27841E4F20874A1F20874BCF20874337E
:20132400F2784574C0F20874F7F20874BAF2087437F2781BE2F58208E2F58308E2F5F0087D
:20134400E21228C5781BC0E0E582F208E583F208E5F0F2D0E008F2801F7809E2FE7F00C002
:2013640006C0077475C0E0746FC0E07480C0E0120DD4E58124FBF581781B7917E2F5F0E341
:20138400B5F01D08E2F5F009E3B5F01408E2F5F009E3B5F00B08E2F5F009E3B5F0028002C4
:2013A400801A7817791BE22440F308E2344209F308E2340F09F308E2340009F375820B1280
:2013C40024DDAC82789BECF27F007E007D007841E4F208F208F208F278457464F208E4F28D
:2013E40008F208F28C828F838EF0ED1228C5AC82789BECF2783DECF208E4F208F208F27572
:20140400820B1222EB75820C1224DDAC82AD83AEF0FF789FECF2EC60337F007E007D0078A5
:20142400417419F208E4F208F208F2784574DCF208E4F208F208F28C828F838EF0ED122880
:20144400C5AC82AD83AEF0FF789FECF2789F793DE2F309E4F309F309F375820C1222EB90A7
:2014640005D874E8F07403A3F0E4A3F0E4A3F07817E2F58208E2F58308E2F5F008E21263CF
:201484000AAC82AD83AEF0FF783DECF208EDF208EEF208EFF27582081222EB9005D874E811
:2014A400F07403A3F0E4A3F0E4A3F0781BE2F58208E2F58308E2F5F008E212630AAC82ADDF
:2014C40083AEF0FF783DECF208EDF208EEF208EFF27582091222EB7807793DE2F309E4F394
:2014E40009F309F375820A1222EB781B7917E3F5F0C3E295F0FC09E3F5F008E295F0FD0979
:20150400E3F5F008E295F0FE09E3F5F008E295F0FF7807E2FA7B0074022AFAE43BFB900534
:20152400D8EAF0EBA3F0EB3395E0A3F0A3F08C828D838EF0EF12630A781FC0E0E582F2081C
:20154400E583F208E5F0F2D0E008F27822E2C313FF18E213FE18E213FB18E213FA7817E2D8
:201564002AF208E23BF208E23EF208E23FF27582031224DD1262BA7807C3E2F5F0740595AD
:20158400F05054126260AE82AF839005F1EEF0EFA3F090027112654BAE82E583FF3395E093
:2015A400FDFC781F9005CDE2F008E2A3F008E2A3F008E2A3F08E828F838DF0EC12607CACC7
:2015C40082AD83AEF0FF7817E22CF208E23DF208E23EF208E23FF27817E2F58208E2F58391
:2015E40008E2F5F008E2123033781FE2F58208E2F58308E2F5F008E212306F7582031224CD
:20160400DDAC82AD83AEF0FF78079005CDE2F0E4A3F0E4A3F0E4A3F08C828D838EF0EF1239
:20162400607CAC828C821230BE7582021224DDAC828C821230E840337582021224DDAC826F
:201644008C821230E840247582021224DDAC828C821230E84015748CC0E0746FC0E074800C
:20166400C0E0120DD4158115811581122D26AF82783DEFF208E4F208F208F27582021222E6
:20168400EB7582031224DD1233E575820F1224DD12343C7582121224DD12584E758210129C
:2016A40024DD12585D7582111224DDAC828C821258697823E2F58212339F1233DFAF82788F
:1C16C4003DEFF208E4F208F208F27582041222EB7582031224DD120C3A025870D1
:206F1E004D502053694B20322E36206F6E20484D2D54525000322E36006661696C656420E9
:206F3E00746F20656E61626C65207265636569766572000A2A2A50414E49432A2A000072C5
:206F5E006164696F5F696E697469616C697365206661696C65640062616420626F61726418
:206F7E00206672657175656E637920256400726164696F5F636F6E66696775726520666141
:056F9E00696C65640050
:2016E000AF82900488E0F5737CFF7DFF74062573FBFA2487F582E43404F583EFF00A78251B
:201700007401F27825C3E29A5065C0027825E22487F582E43404F583E0FB8C75757600E52E
:2017200075F5776BF574C454F0F57862748D79757A00AB747E008B077A00E5796202E57AEA
:201740006207EEC40354F8CBC403CB6BCB54F8CB6BFEEB6202EE6207E574C4540FFE7B006D
:201760006AFCEB6FFD7825E22401F2D0028094740625732487F582E43404F5838C06EEF0F8
:20178000740725732487F582E43404F5838D04ECF022AF828F738F047D007826E27B002C87
:2017A000FCEB3DFDAA737B00C3EA9CEB64808DF063F08095F05032E5732487FCE43404FDE9
:2017C0008C828D83E0F574E573042487FAE43404FB8A828B83E0FE8C828D83F08A828B836A
:2017E000E574F00573057380AD227E8D7F047D0090048774FEF09004887409F07824E2FCD6
:20180000782404F2900489ECF090048A7433F090048B7444F090048C74A6F0780BE2FB082F
:20182000E2FC8E828F838DF0EB126500A3EC12650074022EF50CE43FF50D8D0E7815E2FBF4
:2018400008E2FC850C82850D83850EF0EB126500A3EC12650074062EFEE43FFFC007C0063A
:20186000C0051241DDAC82D005D006D0078E828F838DF0EC1265007582151216E0123E5D00
:20188000AE82AF83C3EE9411EF9400500122787E7411F2900487123D3A90048C746DF07523
:2018A00082B91216E0123E5DAE82AF83C3EE9411EF9400500122787E7411F2900487023DC3
:0118C0003AED
:2018C100AE82AF83E0FDBDFE1A8E828F83A3E0FDBD091074052EFEE43FFF8E828F83E07042
:2018E10002D20D22E5827831F21241857832E582F208E583F27B007C00783474FFF2087421
:20190100FFF27832C3E2940808E2940050030219DE8B828C83C004C003123FD0858228D05D
:2019210003D00474FEB5280280030219DE74012BFEE43CFF8E828F83C004C003123FD085F6
:201941008228D003D0047409252850030219DEC003C004AD287E0074082DFAE43EFC7831DB
:20196100E2F529752A007827E2FB7F00E529C39BFBE52A9FFFC3EB9AEF64808CF063F0804E
:2019810095F0D004D003405574082DFDE43EFE7832C3E29D08E29E404474062BFEE43CFF05
:2019A1008E828F83C004C003123FD0AF82D003D004BF460C7412B528077834EBF208ECF29A
:2019C10074082528F528AA287F007832E2C39AF208E29FF2EA2BFBEF3CFC0219037834E296
:2019E100F58208E2F58322E58290031EF0E4F52DF52E782B797FE2F3900222124008782B99
:201A0100E2FD7827F27836E2FA08E2FB7C009005E77422F07402A3F0E4A3F09005EAEDF08C
:201A2100E4A3F08A828B838CF0126473782BE4F27836E2F58208E2F5831218C1900125E04C
:201A4100FDBD020F90031EE0F5821218E5AC82AD8380047CFF7DFF8C2F8D30124185858273
:201A61002B85832C90031EE0F53474FFB52F0974FFB5300474018001E4FCC3E52B9408E566
:201A81002C94005003021BBBC004123F79858231D00474FEB5310280067827E2F58222C006
:201AA10004123F95858231D004740925315003021BBBC00485313275330074082532FBE42B
:201AC1003533FEAA347F007827E2FC7D00EAC39CFAEF9DFFC3EA9BEF64808EF063F0809579
:201AE100F0D0045003021BBB74082532FEE43533FFC3E52B9EE52C9F5003021BBBEC70280A
:201B0100E52DB52F07E52EB53002801C900006C004123FD0AF82D004BF460D7412B531082B
:201B210074082531F531807074082531F5317827E22422FEE43402FF787FE531F28E828F48
:201B410083C00412400878367927E3C5F0E225F0FE08E23400FF7D007827E22422FAE43495
:201B610002FB9005E7EAF0EBA3F0E4A3F09005EAE531F0E4A3F08E828F838DF01264737820
:201B8100367927E3C5F0E225F0FE08E23400FF8E828F831218C1D0047827E22531F2AE313B
:201BA1007F00E52BC39EF52BE52C9FF52CEE252DF52DEF352EF52E021A7B7827E2F58222BB
:201BC100858235124185858236858337200B163006652008627827E2605DC3E5369420E559
:201BE10037940050527827C3E2F5F0E53595F050087827E4F275820022D208C20B7838E290
:201C0100FA08E2FB7C009005E77422F07402A3F0E4A3F078279005EAE2F0E4A3F08A828BE8
:201C2100838CF01264737827E2F5367537007827E4F2AB368B8222C208200C03021CF1785E
:201C410027E2FB7C008B368C37853538753900C3E5389536E539953750657838E2FA08E21F
:201C6100FE7F009005E77422F07402A3F0E4A3F09005EAE538F0E539A3F08A828E838FF08B
:201C8100126473E5352422FEE43402FF9005E7EEF0EFA3F0E4A3F0AE357F009005EAE53694
:201CA100C39EF0E5379FA3F090022275F000126473E536C395357827F2D209853582227898
:201CC10038E2FD08E2FE7F009005E77422F07402A3F0E4A3F09005EAEBF0ECA3F08D828E8D
:201CE100838FF0126473C20CD2097827E2F58222C209AE357F00C3EE9536EF953750048EEF
:201D0100368F377827E4F2E53645377003F58222900125E0FF7053E53645376043AD3678C1
:201D21007FEDF27838E2F58208E2F583C005124008D005502B78389005E7E2F008E2A3F0EF
:201D4100E4A3F09005EAE536F0E537A3F090022275F000C005126473D0057827EDF2800434
:201D61007827E4F27827E2F58222782BE2B401028003021E007401B53606E4B5370280023A
:201D81008079125DD1AE82AF83782CD3E29EF4B3FEB308E29FF4FF782EC3E29E08E29F501A
:201DA100567827E2FF782704F2EF2422FFE43402FEC007C006123EC4AD82D006D0078F82DD
:201DC1008E83EDF07838E2FD08E2FE7F009005E77422F07402A3F0E4A3F078279005EAE29C
:201DE100F0E4A3F08D828E838FF0126473782BE4F27827E2F5822275820022782BE4F27856
:201E01002BE27003021E8F782BE2FE7F00C3E5369EE5379F5068125DD1AE82AF83782CD388
:201E2100E29EF4B3FEB308E29FF4FF782EC3E29E08E29F5045AD36787FEDF2900222C00514
:201E4100124008D0057827EDF27838E2FC08E2FE7F009005E77422F07402A3F0E4A3F090CD
:201E610005EAEDF0E4A3F08C828E838FF0126473782BE4F27827E2F582227582002278383B
:201E81007936E2F308E209F38535820219E8E53645377003022030123F79AF82BFFE028002
:201EA100030220017401B53606E4B537028002802E7827E26003022030782B7401F2125DE4
:201EC100D1E5828583F0782CF208E5F0F27829E2FE08E2FF782EEEF208EFF2758200221268
:201EE1003F95AF82782BEFF2BFF70050208F057E0074082DFDE43EFE7830E2FB7C00C3EBAB
:201F01009DEC64808EF063F08095F05033782BE4F27827E2FE782704F2EE2422FEE4340221
:201F2100FDC006C005123EC4AC82D005D0068E828D83ECF0153674FFB536021537021E8F89
:201F410074082FFF782BF27827E260627838E2FC08E2FD7E009005E77422F07402A3F0E41C
:201F6100A3F078279005EAE2F0E4A3F08C828D838EF0126473125DD1E5828583F0782CF2AC
:201F810008E5F0F2782BE2FD7E0078299005F1E2F008E2A3F08D828E8312654BE5828583AA
:201FA100F0782EF208E5F0F27827E2F582227E00C3E5369FE5379E5037125DD1E5828583C4
:201FC100F0782CF208E5F0F2782BE2FE7F0078299005F1E2F008E2A3F08E828F8312654B4F
:201FE100E5828583F0782EF208E5F0F27582002278387936E2F308E209F38535820219E8A8
:202001007827E2FF782704F2EF2422FFE43402FEC007C006123EC4AD82D006D0078F828E42
:2020210083EDF0153674FFB536021537021E8F7838E2FD08E2FE7F009005E77422F074022B
:20204100A3F0E4A3F078279005EAE2F0E4A3F08D828E838FF01264737827E2F58222A208C2
:2020610022A20922D20B22E58290031FF07830F222AF83E582900320F0EFA3F0900320E05B
:20208100FEA3E0FF9005D8EEF0EFA3F0E4A3F0E4A3F090000075F001E412630AAC82AD834D
:2020A100AEF0FF0CBC00090DBD00050EBE00010F7829ECF208EDF222E582900322F0200E44
:2020C10039783AE2FD08E2FE7F00900322E0FCFA7B009005E7EDF0EEA3F0EFA3F09005EAED
:2020E100EAF0EBA3F090012675F000C004126473D0047828ECF2C20AC322200A37900322A5
:20210100E0FF7828E2B5072C783A900606E2F008E2A3F0E4A3F0900609EFF0E4A3F09001DB
:202121002675F000126781E5828583F045F07004C20AD322D20AC322AF82BF130050259087
:20214100037774FCF0900222C007122950D0078F8212281E122979AF827827EFF2EF6004A6
:20216100C208D20C22D20190037774FCF09002221229501206C5122979AF827827EFF2EFE7
:202181006004C208D20C22AE82AF83783CC3E2F5F074FC95F05005783C74FCF29005E7EEA6
:2021A100F0EFA3F0E4A3F0783C9005EAE2F0E4A3F090022275F000126473783CE27827F290
:0521C100C208D20C224F
:2021C600AF82BF1300400122EF24ED50030222E9EF240A83F582EF241783F583E4730A0C8A
:2021E600162B2D425944E9E9E9E9E9E9E9A66E44C422222222222222222222222222222213
:2022060022222222C322AF0F8F8212422C920F22C3E4950F74019510E49511E4951240037C
:202226000222E9C322D322C37414950FE49510E49511E4951240030222E9C322C322C374D3
:2022460001950FE49510E49511E4951240030222E9C322C37402950FE49510E49511E49597
:202266001240030222E9C32274FFB50F0F74FFB5100AE4B51106E4B5120280028002D32233
:2022860090035FE0FCA3E0FDA3E0FEA3E0FFECB50F0EEDB5100AEEB51106EFB51202C32216
:2022A60090036BE0FCA3E0FDA3E0FEA3E0FFC3E50F9CE5109DE5119EE5129F402622C3E57C
:2022C6000F9402E5109400E5119400E51294005012C3E4950F74809510E49511E49512500A
:2022E60002C322D322AF82783DE2F50F08E2F51008E2F51108E2F5128F82C0071221C6D0BF
:2023060007400122EF24ED50030224BCEF240A83F582EF241783F583E473BCBCBCBC46BC93
:202326000A20BCBCBC65ACBC4A749CB0882424242423242424242424232324242424242431
:20234600783DE2F582C00712339F1233DFAE82D007783DEEF208E4F208F208F20224BC78D2
:2023660041E4F208F208F208F278457464F208E4F208F208F2783DE2F58208E2F58308E29F
:20238600F5F008E2C0071228C5AB82AC83ADF0FED007783DEBF208ECF208EDF208EEF27815
:2023A6009BEBF20224BC783DE2F5F008E242F008E242F008E245F0604278417419F208E424
:2023C600F208F208F2784574DCF208E4F208F208F2783DE2F58208E2F58308E2F5F008E217
:2023E600C0071228C5AB82AC83ADF0FED007783DEBF208ECF208EDF208EEF2783D799FE24D
:20240600F30224BC783DE2FE900125F0783DEEF208E4F208F208F20224BC783DE2F5F008D9
:20242600E242F008E242F008E245F024FF920650047E0180027E00783DEEF208E4F208F24C
:2024460008F28072783DE2F5F008E242F008E242F008E245F024FF920750047E0180027E28
:2024660000783DEEF208E4F208F208F28048783DE2FD08E2FE8D828E83C00712343CD0076B
:202486008034783DE2FD08E2FE8D828E83C00712584ED0078020783DE2FD08E2FE8D828ED7
:2024A60083C00712585DD007800C783DE2F582C007125869D007EF75F004A42423F58274F5
:2024C6000335F0F583783DE2F008E2A3F008E2A3F008E2A3F0D322AF82BF13004007900089
:2024E60000E4F5F022EF75F004A42423F582740335F0F583E0FCA3E0FDA3E0FEA3E08C82AF
:202506008D838EF02285821385831490036FE0FCA3E0FD900371E0FB8C018D028B007F006C
:20252600E82CF8EF3DFFC3E998EA9F5041E9C39CFEEA9DFFEE2513FEEF3514FF89828A83C1
:20254600C007C006C005C004C003C002C001120B75A882D001D002D003D004D005D006D098
:20256600078E828F83E8F009B900B10A80AE8513088514098B82C002C001120AF8AE82AFE4
:2025860083D001D002740129FCE43AFD8C828D83C007C006C002C001120B75AD82D001D0CA
:2025A600028D047D0089828A83C005C004120B75AB82D004D005D006D0077A00EB4205EAB9
:2025C6004204EEB50506EFB504028002C322D322858215858316900372E0FCA3E0FD9003CD
:2025E60074E0FB8C178D188B027F00EA2CFAEF3DFFC3E5179AE5189F5036E517C39CFEE53E
:20260600189DFFEE2515F582EF3516F5837806E0F2851782851883C005C004C003120B9424
:20262600D003D004D0050517E4B517BB051880B78515088516098B82120AF8AE82AF838EE6
:20264600047806ECF2851782851883C007C006120B94D006D00774012517FCE43518FD7898
:2026660006EFF28C828D83020B94D310AF01C3C0D0122784900000120B75E582FF24B3406C
:2026860005BF30005004C302273A7D237E0390036F7401F0E4A3F0900371EFF08D828E83C4
:2026A60012250B400302273A7582001224DDAC82AD83AEF0FFBC1B0BBD0008BE0005BF00FE
:2026C600028003C3806E7F00EF75F004A42423FD740335F0FE8D828E83E0F50FA3E0F510D9
:2026E600A3E0F511A3E0F5128F82C007C006C0051221C6D005D006D0074032EF75F007A472
:2027060024A3FB746F35F0FC8B828C83A3A3A3E493F9A3E493FAA3E493FBA3E493FC8D822A
:202726008E83E9F0EAA3F0EBA3F0ECA3F00FBF4C004095D333D0D092AF1322D310AF01C3CE
:20274600C0D0900323741BF0E4A3F0E4A3F0E4A3F0120B5A7806744CF2900000120B947EE3
:20276600237F039003727401F0E4A3F0900374744CF08E828F831225D6D0D092AF227F0065
:20278600EF75F004A42423FD740335F0FEEF75F007A424A3FB746F35F0FC8B828C83A3A332
:2027A600A3E493F9A3E493FAA3E493FBA3E493FC8D828E83E9F0EAA3F0EBA3F0ECA3F00F3F
:2027C600BF130040BB22AF827E008F037C007D40EE75F007A424A3F582746F35F0F583E4EA
:2027E60093F8A3E493F9A3E493FA9005F3E8F0E9A3F0EAA3F08B828C838DF0C007C0061290
:20280600656BE5828583F0D006D00745F060060EBE130040B58E822285821974ED25194036
:202826006EE51975F004A42423F582740335F0F583E0F51AA3E0F51BA3E0F51CA3E0F51D9C
:20284600E51975F007A424A3F582746F35F0F583E493FAA3E493FEA3E493FFAC197D00C002
:202866001AC01BC01CC01DC002C006C007C004C0057850E2C0E008E2C0E07428C0E07470D8
:20288600C0E07480C0E0122C09E58124F2F58122AF82BF13005021EF75F007A424A3F582F2
:2028A600746F35F0F583E493FDA3E493FEA3E493FF8D828E838FF02290000075F00022AC69
:2028C60082AD83AEF0FF7841C3E2F5F0EC95F008E2F5F0ED95F008E2F5F0EE95F008E2F58D
:2028E600F0EF95F0500D7841E2FC08E2FD08E2FE08E2FF7845C3E29C08E29D08E29E08E2CB
:182906009F500D7845E2FC08E2FD08E2FE08E2FF8C828D838EF0EF22BD
:206FA3003A70801B000000417080390000004E708040000000587080190000005E708000F2
:206FC300000000667080000000006A708000000000727080000000007C70800000000085AB
:206FE3007080000000008E7080000000009B708064000000A6708000000000AF70800000FC
:207003000000BA708000000000C1708001000000C87080FFFF0000D8708000000000E07043
:2070230080020000005B25755D205325753A2025733D256C750A00464F524D4154005345CC
:207043005249414C5F5350454544004149525F5350454544004E45544944005458504F5773
:20706300455200454343004D41564C494E4B004F5050524553454E44004D494E5F465245C9
:2070830051004D41585F46524551004E554D5F4348414E4E454C5300445554595F4359430A
:2070A3004C45004C42545F52535349004D414E4348455354455200525453435453004E4F50
:2070C30044454944004E4F444544455354494E4154494F4E0053594E43414E59004E4F4429
:0770E30045434F554E5400D8
:0804DC00C210C211C212C213CA
:20291E00AF822014058F82024218784A7949C3E3F5F0E295F0501A784AE2FE784A04F290F8
:20293E000375E0FCA3E0FDEE2CF582E43DF583EFF022AF83E582900378F0EFA3F090037859
:20295E00E0FEA3E0FF900375EEF0EFA3F0784AE4F2900377E07849F2D21422C214784AE2DA
:20297E00F58222AD82AE83AFF08D828E838FF0126BABFC700122BC25028003022BF0C213F3
:20299E00C212C211C2100DBD00010E8D828E838FF0126BABFBBB6802800CBB6C10D2100D2E
:2029BE00BD000A0E8007D2120DBD00010E8D828E838FF0126BABFBBB63028030BB640280AD
:2029DE0018BB6F02802BBB7302800ABB7502800EBB78238010D211801D753A0A8018753A0A
:2029FE000AD2138011753A10D213800A753A008005753A08D213301171A8811818E624FD29
:202A1E00FBA8811818A6038B01873B09873C09873D1919C005C006C007AA3BAB3CAF3D8AEE
:202A3E00828B838FF0126BABD007D006D0057003022C01C005C006C007AA3BAB3CAF3D8A89
:202A5E00828B838FF0126BABFA053BE4B53B02053C8A82C007C006C00512291ED005D0066E
:202A7E00D007D007D006D00580A9301366301021A8811818E624FCFBA8811818A6038B01C4
:202A9E00873E09873F098740098741191919022B5730121DA8811818E614F9A8811818A66A
:202ABE000187038B3E753F00754000754100022B57A8811818E624FEFBA8811818A6038B18
:202ADE00018702098703198A3E8B3F7540007541008066301020A8811818E624FCFBA881DC
:202AFE001818A6038B01873E09873F098740098741191919804330121EA8811818E614FB62
:202B1E00A8811818A6038B01E7FBF53E3395E0F53FF540F5418022A8811818E624FEFBA807
:202B3E00811818A6038B018702098703198A3EEBF53F3395E0F540F541E53A7003022BDBC8
:202B5E0030132F90059C747BF0E4A3F07440A3F090059FE53AF0853E82853F838540F0E5AE
:202B7E0041C007C006C005125EC9D005D006D007802D9005C5747BF0E4A3F07440A3F090B5
:202B9E0005C8E53AF0853E82853F838540F0E541C007C006C005125FDFD005D006D0077937
:202BBE007BE7FB603E8B82C007C006C005C00112291ED001D005D006D0070980E4AB3E8B4F
:202BDE0082C007C006C00512291ED005D006D00780118C82C007C006C00512291ED005D039
:202BFE0006D0070DBD00010E022987E58124FCFFC007E58124FBF886820886830886F012DD
:052C1E0029811581224F
:202C2300AFF0AE83E582900476F0EEA3F0EFA3F0201502C322784BC3E2F5F074FC95F050AF
:202C430005122FBD8045900476E0FDA3E0FEA3E0FF8D828E838FF0784BE2126500785EE24C
:202C6300FD08E2FE7F009005E7747AF07403A3F0E4A3F0784B9005EAE2F0E4A3F08D828EEA
:202C8300838FF0126473122FBDD322780BE2FE08E2FFBEFF05BFFF02800C0EBE00010F78A5
:202CA3000BEEF208EFF2C322AF8275A700C294C2B77586FF7860E2FD08E2FE8F041FEC60A5
:202CC3001130B1FD8D828E83E0F586A3AD82AE8380E930B1FD74805584FFBF800280F6C2F8
:202CE300B7D29475A70022201505784CE26002D3227582311234ADE58230E402D322C322CD
:202D0300A2A89217C2A81016028006A21792A8D322A21792A8C322784DE2F5822275822688
:202D23000234AD785AE2F582227582081234ADAF8274014FFEC007C006758208123477151D
:202D430081D0075307FEC0077582081234771581227582081234ADAF8274024FFEC007C018
:202D6300067582081234771581D0075307FDC007758208123477158122E582FF2403501999
:202D8300C00774EAC0E07470C0E07480C0E0120DD4158115811581D007C007122D2CD007BE
:202DA300C007C00775823E1234771581D007EFFE24DF50027E2078627960E2F308E209F3D5
:202DC3008E82C007C006122CABD006D007EFC39EFF7862E22EF208E23400F2C007E4C0E037
:202DE3007582051234771581E4C0E07582061234771581C216C2187409C0E075820712349A
:202E0300771581125DD1AC82AD83D007C007C005C004125DD1AA82AB83D004D005D007EAD9
:202E2300C39CFAEB9DFB7864C3E2F5F0EA95F008E2F5F0EB95F04003022F48758203C00722
:202E4300C005C0041234ADAB82D004D005D007301840EF603DEB30E5397E04BF0400500262
:202E63008F0678627960E2F308E209F38E82C007C006C005C004122CABD004D005D006D0EE
:202E830007EFC39EFF7862E22EF208E23400F2022E0F301840EF603DEB20E6397E04BF042B
:202EA3000050028F0678627960E2F308E209F38E82C007C006C005C004122CABD004D00502
:202EC300D006D007EFC39EFF7862E22EF208E23400F2022E0FEB30E720122D2C780DE2FADA
:202EE30008E2FEBAFF05BEFF02800C0ABA00010E780DEAF208EEF2C322758202C007C00558
:202F0300C0041234ADAB82D004D005D007EB30E105D218022E0F201803022E0FEB30E103A7
:202F2300022E0FEF601D780DE2FE08E2FFBEFF05BFFF02800C0EBE00010F780DEEF208EF4F
:202F4300F2C322D322780DE2FE08E2FFBEFF05BFFF02800C0EBE00010F780DEEF208EFF21C
:202F6300C322E58290047BF0A2A8921AC2A8900479E0FEA3E0FFFDC007C006C00575823AB6
:202F83001234771581D006D007C00675823B123477158190047BE0FF78667962E2F308E27D
:202FA30009F378687964E2F308E209F38F82122D7C9219A21A92A8A21922C2A8C215784B4C
:202FC300E4F2C216784CE4F27413C0E075820512347715817440C0E075820612347715818C
:202FE300123521122D2C122D547405C0E07582071234771581D2A8D322900032125D607589
:2030030082011234ADAF82BFFF028005BF05005002C3221235817582011234ADE582FF208D
:20302300E006123581921B22EF30E102D322C322AC82AD83AEF0FFC3ED941CEE944EEF9486
:203043000E400E74C09C74F79D74BA9E74379F5002C3227852ECF208EDF208EEF208EFF28C
:203063008C828D838EF0EF1235EDD322AC82AD83AEF0FFC374F09C74E89D74269EE49F50D7
:2030830002C322786A7410F2087427F208E4F208F28C828D838EF0EF12352DAC82AD83AE76
:2030A300F0FF7856ECF208EDF208EEF208EFF2C00475827A1234771581D322E58290047CC6
:2030C300F0785BE2FF90047CE0FEB5070122785BEEF2C0067582791234771581C2162278CE
:2030E3005BE2F58222AF82C007E4C0E07582051234771581E4C0E075820612347715811246
:2031030035217415C0E075820B12347715817412C0E075820C123477158174CCC0E0758285
:20312300091234771581D007EF249B5010C00774C0C0E07582581234771581D0077852E28B
:20314300FB08E2FC08E2FD08E28B828C838DF0C0071235ED7856E2FB08E208E208E2C003FA
:2031630075827A1234771581748DC0E075823012347715817442C0E075823312347715819A
:2031830074CFC0E0758232123477158174FFC0E0758245123477158174FFC0E075824612C9
:2031A3003477158174FFC0E0758243123477158174FFC0E07582441234771581743CC0E03A
:2031C30075827C12347715817420C0E075827D12347715817432C0E075827E12347715811D
:2031E300785D7410F2785DE2FEC00675823412347715817428C0E075823512347715817558
:20320300820012339FD0077E00EE90710793FDC39F50060EBE0C0040F0EEFF90710793FE24
:20322300785AF2BE200040047E0D80027E2D75820DC007C0061224DDAA82AB83ACF0FDD086
:2032430006D007EA4B4C4D600B785AE2FD247F4003430602C007C00675827012347715812C
:203263007423C0E075827112347715817444C0E075821D1234771581D007785AE2FEBEC88B
:20328300005012C007740AC0E075821E1234771581D0078010C0077402C0E075821E1234DD
:2032A300771581D0077809E2B4433A7E00EE75F00DA42414FC747135F0FDEF2CF582E43D23
:2032C300F583E493FDEE9070FB93FCC007C006C0058C821234771581D006D0070EBE0C004F
:2032E30040CB02339D7809E2B447397E00EE75F00DA424B0FC747135F0FDEF2CF582E43D4B
:20330300F583E493FDEE9070FB93FCC007C006C0058C821234771581D006D0070EBE0C000E
:2033230040CB80767809E2B486397E00EE75F00DA4244CFC747235F0FDEF2CF582E43DF515
:2033430083E493FDEE9070FB93FCC007C006C0058C821234771581D006D0070EBE0C004083
:20336300CB80377E00EE75F00DA424E8FC747235F0FDEF2CF582E43DF583E493FDEE9070A9
:20338300FB93FCC007C006C0058C821234771581D006D0070EBE0C0040CBD322E58290046D
:2033A3007DF0FF7E00EE90738493FDC39F50060EBE080040F090047EEEF0BE080690047E91
:2033C3007407F090047EE0FF90738493FE785CEEF2C00775826D123477158122785CE2F577
:2033E3008222AF83E58290047FF0EFA3F090047FE0FEA3E0FF8E04784EECF28F05784FED17
:20340300F2200534C007C006C005C00575823C1234771581D005D006D007C006C005C006EE
:2034230075823D12347715817582411234771581758242123477158122AF83E5829004811B
:20344300F0EFA3F0900481E0FEA3E0FF7850EEF208EFF28F06C00675823F12347715817895
:2034630050E254FFFE08E25400C006758240123477158122AF82A2A89238C2A875A700C289
:2034830094C2B774804FF58630B1FDA8811818868630B1FD74805584FFBF800280F6C2B741
:2034A300D29475A700A23892A822AF82A2A89238C2A875A700C294C2B78F8630B1FD7586C9
:2034C3000030B1FD74805584FFBF800280F6AF86C2B7D29475A700A23892A88F8222AF82E0
:2034E30075A700C294C2B775867F30B7FD8586E0E58124FDF886050886068F041FEC6016E3
:20350300C2B775860030B7FD8D828E83E586F0A3AD82AE8380E4C2B7D29475A7002275825A
:20352300031234AD7582040234ADAF82AE83ADF0FC786EEFF208EEF208EDF208ECF2786D58
:20354300E2C313FF18E213FE18E213FB18E213FA786EE22AFA08E23BFB08E23EFE08E23F3C
:20356300FF786A9005D8E2F008E2A3F008E2A3F008E2A3F08A828B838EF0EF02630AE4C017
:20358300E07582051234771581E4C0E075820612347715811235217481C0E07582071234E4
:2035A300771581900002125D27308707125D5850F8C322E4C0E075820512347715817402D8
:2035C300C0E07582061234771581900014125D27125D5840137582031234AD758204123476
:2035E300ADE58230E1EAD322C322AF82AE83ADF0FC7872EFF208EEF208EDF208ECF278727A
:20360300C3E2F5F0E495F008E2F5F0743895F008E2F5F0749C95F008E2F5F0741C95F0402C
:20362300030236E37873E224C8F208E23463F208E234E3F29005D8E4F0742DA3F07431A39B
:20364300F07401A3F07872E2F58208E2F58308E2F5F008E212630AAA82900483EAF09005E0
:20366300FDEAF0E4A3F0E4A3F0E4A3F0902D0075F0317401126668AC82AD83AEF0FF78727E
:20368300E2C39CF208E29DF208E29EF208E29FF2786A7471F2087402F208E4F208F278729B
:2036A300E2F58208E2F58308E2F5F008E212352D7872C0E0E582F208E583F208E5F0F2D03B
:2036C300E008F27872E225E0F208E233F208E233F208E233F2900483E0FF4420F00237A6F4
:2036E3007873E224E4F208E234B1F208E234F1F29005D87480F07496A3F07498A3F0E4A32A
:20370300F07872E2F58208E2F58308E2F5F008E212630AAC82900483ECF09005FDECF0E466
:20372300A3F0E4A3F0E4A3F090968075F098E4126668AC82AD83AEF0FF7872E2C39CF2087E
:20374300E29DF208E29EF208E29FF2786A7471F2087402F208E4F208F27872E2F58208E2D2
:20376300F58308E2F5F008E212352D7872C0E0E582F208E583F208E5F0F2D0E008F27872F9
:20378300E225E0F208E233F208E233F208E233F2181818E225E0F208E233F208E233F208D9
:2037A300E233F2900483E04440F07872E2FC08E2FDC005C004900483E0C0E0758275123413
:2037C300771581D004D0058D07C005C004C0077582761234771581D004D005C004758277B1
:2037E300123477158122D2EC20ECFDAFBE7E00ACBD7D00EC4206ED42078E828F831269832F
:20380300AA82AB83ACF0FDC002C003C004C00590FF2E75F0D1743F1261BDAA82AB83ACF0D8
:20382300FDE58124FCF5818A828B838CF0ED126990AE82AF83EE24FFFCEF34FBFD8C828DD9
:2038430083126983AA82AB83ACF0FD749AC0E07499C0E07459C0E07440C0E08A828B838C2F
:20386300F0ED126AE8AA82AB83ACF0FDE58124FCF581E4C0E0C0E074C8C0E07441C0E08A36
:20388300828B838CF0ED1268C8AA82AB83ACF0FDE58124FCF5818A828B838CF0ED0269907D
:2038A300E582900484F0FF24FC4068EF2F2F9038B5730238C10239160239160238E6741849
:2038C300C0E075820D12347715817582081234ADAF82741F5F4480FFC00775820812347793
:2038E3001581227582081234ADAF82741F5F4420FFC0077582081234771581740AC0E075E9
:20390300820D1234771581E4C0E075820E1234771581227582081234ADAF8253071FC00761
:203923007582081234771581740AC0E075820D12347715817404C0E075820E12347715814D
:2039430022C027C0E0C0F0C082C083C007C006C005C004C003C002C001C000C0D075D00095
:203963007582041234ADAF82758203C0071234ADAE82D007EE30E449784CE2FC7D0074325A
:203983002CFCE43DFDC374FC9CE49D5003023A4F784CE2247AFCE43403FDC007C006C00407
:2039A300C0057582321234E115811581784CE22432F27582261234ADE582D006D007784DEC
:2039C300F2EF30E611D216758226C0061234ADE582D006784DF2200504EE20E06FEE30E1A5
:2039E3006975824B1234ADE582FF2403405E784CC3E2F5F0EF95F04053784CC3E29F50222C
:203A0300784CE2247AFDE43403FE784CD3E29FF4FCC007C005C0068C821234E1158115818E
:203A2300D007784BEFF2D215E4C0E07582051234771581E4C0E07582061234771581740204
:203A4300C0E07582071234771581801E780BE2FE08E2FFBEFF05BFFF02800C0EBE00010F9E
:203A6300780BEEF208EFF2122FBDD0D0D000D001D002D003D004D005D006D007D083D08218
:073A8300D0F0D0E0D02732A3
:2070EA006F76657273697A6564207061636B6574001C1F2021222324252A6E6F7202040882
:20710A001013182030406080C0FA2727272E1601050B9A888A8C8D03030303030303030356
:20712A0003030303F4FA7D3F69A77D535E7D5E3F3020000102010001010101010202418316
:20714A00060C37C406895D065D0CAA8912254A4C9C25378625864AAB000102040201020390
:20716A00020202040785080E12728A0E18BB0EBBEAFF1D1D1D1E1E1E203041505050501026
:20718A002041839BC4080C101820314062C58912A69C314A6293C5270003060D1A1E2633CE
:2071AA004D669ACDFEFE2B2B2B2E1601050B9A888A8C8D03030303030303030303030303ED
:2071CA00F4FA7D3F69A77D535E7D5E3F30200001020100010101010102024183060C37C475
:2071EA0006895D065D0CAA8912254A4C9C25378625864AAB000102040201020302020204F3
:20720A000785080E12728A0E18BB0EBBEAFF1E1E1E21212121304150505050102041839B03
:20722A00C4080C101820314062C58912A69C314A6293C5270003060D1A1E26334D669ACD92
:20724A00FEFE010101010101050B9A888A8C8D03030303030303030303030303D0E8F4FA80
:20726A00D3A77D535E7D5E3F30E0602000000001010101010202102041839BC406895D0664
:20728A005D0CAA62C58912A69C25378625864AAB0000000101010203020202040723448546
:2072AA0008398A0E18BB0EBBEAFF1C1C1C1C1C1E20304150505050102041839BC4080C1074
:2072CA001820314062C58912A69C314A6293C5270003060D1A1E26334D669ACDFEFE0101DC
:2072EA0001010101050B9A888A8C8D03030303030303030303030303D0E8F4FAD3A77D5394
:20730A005E7D5E3F30E0602000000001010101010202102041839BC406895D065D0CAA6298
:20732A00C58912A69C25378625864AAB0000000101010203020202040723448508398A0E41
:20734A0018BB0EBBEAFF1E1E1E1E1E1E20304150505050102041839BC4080C1018203140F9
:20736A0062C58912A69C314A6293C5270003060D1A1E26334D669ACDFEFE010205080B0EBD
:02738A001114DC
:203A8A00C027C0E0C0F0C082C083C007C006C005C004C003C002C001C000C0D075D000105F
:203AAA009803023BA6AF9930000E300103023BA68F821204E7023BA68F82C007120581D0B0
:203ACA00077876E22401FD08E23400FEBD0009BE04067D007E00800B7876E22401FD08E2D7
:203AEA003400FE7878E2B5050708E2B50602803A7876E22417F58208E23406F583EFF07821
:203B0A0076E22401FD08E23400FEBD0009BE04067D007E00800B7876E22401FD08E23400E1
:203B2A00FE7876EDF208EEF2801B7811E2FD08E2FEBDFF05BEFF02800C0DBD00010E78116F
:203B4A00EDF208EEF230075478767978C3E3F5F0E295F009E3F5F008E295F0B3E433FE60D0
:203B6A001B7878E22400FD08E23404FE7876D3E29DF4B3FDB308E29EF4FE80157878797688
:203B8A00E3F5F0C3E295F0FD09E3F5F008E295F0FEC3ED9420EE94005002D2821099028037
:203BAA0061787A797CE2F5F0E3B5F00B08E2F5F009E3B5F002804930070A3083072000040F
:203BCA00D21C803E787CE22417F58208E2340AF583E0FF787CE22401FD08E23400FEBD0057
:203BEA0009BE02067D007E00800B787CE22401FD08E23400FE787CEDF208EEF28F998002ED
:203C0A00D21CD0D0D000D001D002D003D004D005D006D007D083D082D0F0D0E0D0273278BA
:203C2A007A797CE2F5F0E3B5F00A08E2F5F009E3B5F00122301C03023EB522AF8275A7007C
:203C4A00C2AC7876E4F208F2787CE4F208F2787AE4F208F2787CE4F208F2D21CC28EAE896F
:203C6A00740F5E4420F5898F82124252D28E759810C282D2AC22AF82C007123E5DAD82AEDD
:203C8A0083D007C3ED9401EE94005002C3228F82123C9FD322AF82A2AC9238C2AC787AE244
:203CAA002401FD08E23400FEBD0009BE02067D007E00800B787AE22401FD08E23400FE7820
:203CCA007CE2B5050708E2B506028044787AE22417F58208E2340AF583EFF0787AE2240152
:203CEA00FE08E23400FFBE0009BF02067E007F00800B787AE22401FE08E23400FF787AEE95
:203D0A00F208EFF2301C24C027123EB5D027801B780FE2FE08E2FFBEFF05BFFF02800C0E64
:203D2A00BE00010F780FEEF208EFF2A23892AC22858242858343787EE2700122123E5DACC9
:203D4A0082AD83787EE2FA7B00C3EC9AED9B501F787EECF2780FE2FC08E2FDBCFF05BDFF7E
:203D6A0002800C0CBC00010D780FECF208EDF2787EE2FD787AD3E29400F4B3FBB308E294A6
:203D8A0002F4FC8D027F00C3EB9AEC9F5008787AE2FFC3E49FFD787AE22417FE08E2340AA3
:203DAA00FF7C009005E7E542F0E543A3F0E4A3F09005EAEDF0E4A3F08E828F838CF0C00583
:203DCA00126473D005ED2542F542E43543F543787EE2C39DF2D21D10AF02C21D7F00787AD2
:203DEA00E22DF208E23FF2787AE25400700608E254FE6006787BE224FEF2A21D92AF787E7E
:203E0A00E2603E9005E7E542F0E543A3F0E4A3F0787EE2FE7F009005EAEEF0EFA3F0900A85
:203E2A001775F000C007C006126473D006D007D21D10AF02C21D787AEEF208EFF2A21D923E
:203E4A00AFD21D10AF02C21D301C03123EB5A21D92AF22A2AC921EC2AC787A797CC3E3F5B6
:203E6A00F0E295F009E3F5F008E295F0B3E433FF601B787CE22400FE08E23402FF787AD381
:203E8A00E29EF4B3FEB308E29FF4FF8015787C797AE3F5F0C3E295F0FE09E3F5F008E29508
:203EAA00F0FFA21E92AC8E828F832230070730830420000122C21CD29922A2AC921FC2ACB7
:203ECA0078767978E2F5F0E3B5F00B08E2F5F009E3B5F002803A7878E22417F58208E234E1
:203EEA0006F583E0FF7878E22401FD08E23400FEBD0009BE04067D007E00800B7878E22441
:203F0A0001FD08E23400FE7878EDF208EEF280027F0030075378767978C3E3F5F0E295F06A
:203F2A0009E3F5F008E295F0B3E433FE601B7878E22400FD08E23404FE7876D3E29DF4B3FA
:203F4A00FDB308E29EF4FE801578787976E3F5F0C3E295F0FD09E3F5F008E295F0FEC3E4E5
:203F6A009D74029E5002C282A21F92AC8F8222A2AC9220C2AC7878E22417F58208E23406A8
:203F8A00F583E0FFA22092AC8F8222A2AC9221C2AC7878E22401FE08E23400FFBE0009BF86
:203FAA0004067E007F00800B7878E22401FE08E23400FFEE2417F582EF3406F583E0FFA291
:203FCA002192AC8F8222AF83E582900485F0EFA3F0A2AC9222C2AC900485E0FEA3E0FF78C0
:203FEA0078E22EFE08E23FFF530703EE2417F582EF3406F583E0FFA22292AC8F8222858250
:20400A0044858345124185AC82AD83787FE2FA7B00C3EC9AED9B5002C3227880EAF208EBB2
:20402A00F27878D3E29400F4B3FAB308E29404F4FB7880C3E2F5F0EA95F008E2F5F0EB9546
:20404A00F0501378787980D3E29400F4B3F3B308E29404F409F3AA44AB457F007878E224BF
:20406A0017FD08E23406FE9005E7EDF0EEA3F0E4A3F078809005EAE2F008E2A3F08A828B52
:20408A00838FF01264737880E2FC787FE2C39CF27880E22544F54408E23545F545D223100C
:2040AA00AF02C22378787980E3C5F0E225F0F209E3C5F008E235F0F27878E25400700608B0
:2040CA00E254FC60067879E224FCF2A22392AF787FE26044AD44AE457F009005E77417F07C
:2040EA007406A3F0E4A3F0787FE2FB7C009005EAEBF0ECA3F08D828E838FF0C004C00312D1
:20410A006473D003D004D22310AF02C2237878EBF208ECF2A22392AFD22310AF02C22330F8
:20412A00075378767978C3E3F5F0E295F009E3F5F008E295F0B3E433FF601B7878E22400D0
:20414A00FE08E23404FF7876D3E29EF4B3FEB308E29FF4FF801578787976E3F5F0C3E295AB
:20416A00F0FE09E3F5F008E295F0FFC3E49E74029F5002C282A22392AFD322A2AC9224C257
:20418A00AC78767978C3E3F5F0E295F009E3F5F008E295F0B3E433FF601778767978E3F561
:2041AA00F0C3E295F0FE09E3F5F008E295F0FF80197878D3E29400F4B3FCB308E29404F400
:2041CA00FD7876E22CFE08E23DFFA22492AC8E828F8322124185AE82AF83E4C39EFE74047B
:2041EA009FC423CEC423541F6ECE541FCE6ECEFF9005F1EEF0EFA3F090006412654BAE8283
:20420A00E583A2E7CE33CE33CE54018E8222AF82BF0A0A75820DC007123C9FD0078F8202A6
:20422A003C9FAF827E00BE0900501BEE75F003A4248CF582747335F0F583E493FDEFB505F6
:20424A0002D3220E80E0C322AF82C00712422CD00740027F397E00BE0900501BEE75F003BB
:20426A00A4248CF582747335F0F583E493FDEFB5050280030E80E0EE75F003A4248CFD74BA
:20428A007335F0FE8D828E83A3E493F58DAC8E5304F48D828E83A3A3E4934CF58E9005FDFF
:1742AA00EFF0E4A3F0E4A3F0E4A3F090007DE4F5F01266680220726F
:1B738C00012C02029602042C0009960013600126B001392B08739608E6CB08CD
:2074B4000000000000000000000000000000000000000000000000000000000000000000B8
:2074D400000000000000000000000000000000000000000000000000000000000000000098
:2074F400000000000000000000000000000000000000000000000000000000000000000078
:20751400000000000000000000000000000000000000000000000000000000000000000057
:2042C1007F0078B2E224FFFD08E234FFFE8F037C00C3EB9DEC9E400302437FBF0800400323
:2042E10002437F7850E2B5030808E2B5040302437BEF75F002A4FDAEF0C007ED2415F54A68
:20430100EE3401F54B854A82854B83A3E0FF8F4C754D007850E2FA08E2CA25E0CA33FFEA33
:204321002405FAEF3401FF8A828F83A3E0FF8F4E754F00854A82854B83E0FF7A00ED2405E2
:20434100F582EE3401F583E0FE7D00C007C04CC04DC04EC04FC007C002C006C005C003C05B
:204361000474A7C0E07473C0E07480C0E0122C09E58124F3F581D007D0070F0242C3789C50
:20438100E2FE7F00C007C0061237E9AC82AD83D006D0077815E2F54E08E2F54F7813E2F5B1
:2043A1004C08E2F54D7811E2F54A08E2F54B780FE2F55008E2F551780BE2F55208E2F553F4
:2043C100780DE2FA08E2FBC006C007C004C005C04EC04FC04CC04DC04AC04BC050C051C054
:2043E10052C053C002C00378A7E2C0E008E2C0E07850E2C0E008E2C0E074CFC0E07473C049
:20440100E07480C0E0122C09E58124E9F58178A7E4F208F22278A6E2540160030242C12207
:20442100AF827E0078979005F1E2F008E2A3F08F828E8312654BAE82AF837895E22EFE087F
:20444100E23F8E82F58322AE82AF837899C3E29E08E29F50087899E4F208F2800A7899E29B
:20446100C39EF208E29FF27889C3E2F5F0EE95F008E2F5F0EF95F050030247547883E2540B
:2044810000700608E25480600B7850E2F5F008E245F0706F7883E2FC08E2FD788374012C93
:2044A100F2E43D08F278B2900601E2F008E2A3F08C828D83C007C0061266D4AC82AD83D0B9
:2044C10006D0077850E2B5040708E2B50502800280317882E4F278B2900601E2F008E2A3CB
:2044E100F07883E2F58208E2F583C007C0061266D4E5828583F0D006D0077883F208E5F066
:20450100F280557883E25400700608E254806002804178B2900601E2F008E2A3F0900001AA
:20452100C007C0061266D4AC82AD83D006D0077883E2C39CFC08E29DFD78B2E224FFFA08A9
:20454100E234FFFBECB5020BEDB5030778827402F2800578827401F27889D3E29EF4B3FEAF
:20456100B308E29FF4FF7882E2B40210788DE2FC08E2FD7889ECF208EDF28019788BE2FC5F
:2045810008E2FD7889ECF208EDF2C007C006120D0BD006D007C007C006122FBDD006D007D1
:2045A1007807C3E2F5F0740195F0500C78A0E4F208F278A4E4F208F27882E2600302474BF4
:2045C100C006C007789BE2FC7D00789CE2F554755500ECC39554FEED9555FFBE640ABF007F
:2045E10007D007D00602474BD007D006C006C007C007C006C005C004C046C047C048C04904
:2046010090333375F073743F1261BD85825685835785F058F559E58124FCF581D004D0056C
:20462100D006D007789DE2F58208E2F583C005C0041269C4AA82AB83AEF0FFD004D005C0D4
:2046410007C006C005C004C002C003C006C00790000075F0A074401261BD85825A85835BB4
:2046610085F05CF55DE58124FCF581D004D005D006D0077890798BE3C5F0E225F0FE09E33F
:20468100C5F008E235F0CE25E0CE33FF8E828F83C005C0041269C4AA82AB83AEF0FFC002DF
:2046A100C003C006C007855A82855B83855CF0E55D126AE8AA82AB83AEF0FFE58124FCF5FC
:2046C10081D004D005C007C006C005C004C002C003C006C0078556828557838558F0E559C0
:2046E1001268C885824685834785F048F549E58124FCF581D004D005D006D007789DE4F2A3
:2047010008F2ECC39554FCED9555FD8C828D83126983AC82AD83AEF0FFC007C006C004C00E
:2047210005C006C0078546828547838548F0E54912651BE58124FCF581D006D007E5822499
:20474100FF922EB3922CD007D0067899E4F208F20244687882E2B40210C007C006120CE5BA
:204761001230BED006D007800EC007C006120CD51230BED006D0077889E2C39EF208E29F11
:20478100F222AF827882E2B40224EF70217850E2F5F008E245F0700475820122785079928E
:2047A100E24400F308E2448009F3758200227882E270030249B3102600EF60030248427843
:2047C10083E2F5F008E245F060467892E254FFFE08E2547FFF7883E224FFFC08E234FFFDBA
:2047E10078B2E224FFFA08E234FFFB900601EAF0EBA3F08C828D83C007C0061266D4AC8263
:20480100AD83D006D007EEB50406EFB5050280297883E2F5F008E245F070227892E254FF07
:20482100FE08E2547FFF78B2E224FEFC08E234FFFDEEB50408EFB50504758201227582000C
:204841002278B4E270030249A17892E254FFFE08E2547FFF78AEE2FC08E2FDEEB50406EF48
:20486100B505028002D2287892E25400700608E25480600280797892E22401FE08E2340003
:20488100FF78B2E224FFFA08E234FFFB900601EAF0EBA3F08E828F83C005C0041266D4AE43
:2048A10082AF83D004D005ECB50644EDB507407892ECF208EDF2126260AE82AF837895E2D2
:2048C100FA08E2CA25E0CA33FB900601EAF0EBA3F08E828F831266D4AE82AF837895E22E50
:2048E100FE08E23FFF7899EEF208EFF202496E7892ECF274804D08F278509005F1E2240186
:20490100F008E23400A3F07895E2F58208E2F58312654BAE82AF83C007C006126260AC827A
:20492100AD8378509005F1E22402F008E23400A3F07895E2F58208E2F583C005C004126587
:204941004BAA82AB83D004D005900601EAF0EBA3F08C828D831266D4AC82AD83D006D007A4
:20496100EC2EFEED3FFF7899EEF208EFF27895E2FE08E2CE25E0CE33CE25E0CE33FF900605
:2049810001EEF0EFA3F07899E2F58208E2F5831266D4E5828583F07899F208E5F0F2800EDE
:2049A10078507992E24400F308E2448009F3758200227882E2705A30260C7892E4F20874E3
:2049C10080F27582002230271078507992E24400F308E2448009F3800E7850E2FE08E2FF2F
:2049E1007892EEF208EFF2102802802178959005F1E2F008E2A3F090000612654BE58285E2
:204A010083F07899F208E5F0F27582002275820122758201221233DFE582FF24EB400578AD
:204A21009CE4F2221237E9E5828583F0249CFEE5F034FFFFC3E49EE464808FF063F0809597
:204A4100F0E433FD700C789CE26007789CE214F28039C3740A9EE464808FF063F08095F045
:204A61005008789CE2240AF28021C374059EE464808FF063F08095F05008789CE22405F244
:204A81008009ED6006789CE22401F2789BE2FE7F00789CE2FC7D00EEC39CFEEF9DFFC3EEC4
:204AA1009414EF648094805008789B799CE224ECF3227850E2F5F008E245F06003302A0E66
:204AC100900594E4F0C22AD204120D3F8007900594E02401F0900594E0FFBF02005004C234
:204AE1009580477894E4F2A2299295B229788374FFF20874FFF29005E4E4F09005E5741092
:204B0100F0E4A3F090011575F00012644B9005E4E4F09005E57410F0E4A3F090010575F0B4
:204B21000012644B78A7E4F208F2900594E0FF24FC5029302B0F75F005EF84AFF0BF04106A
:204B4100120D0B800BC204120D3F120CE51230BE900594E0FF24C3500343EF1078A9E4F2FD
:204B610008F23025077803E2FF78A6F2B225900595E02401F0900595E0FFBF0408124A1636
:204B8100900595E4F022AE82AF839000BA75F000C007C006126AD0E5828583F02401FCE4A6
:204BA10035F0FD9005E774BAF07400A3F0E4A3F09005EAECF0EDA3F090058375F0001264EC
:204BC10073D006D00778B0EEF208EFF2D22D22AF82BF02004017EF24EF4012900487E0FE0C
:204BE100BE520A900488E0FEBE540280237E00C3EE9F501BEE2487F582E43404F583E0F537
:204C010082C007C006124218D006D0070E80E02278AE79B0E2F308E209F39005E77487F06A
:204C21007404A3F0E4A3F09005EAEFF0E4A3F09000BA75F000C007126473D007EF24BAF524
:204C410082E43400F583E4F09000BA7441F07801EFF2BF041B9000BCE0FFBF49139000BDB3
:204C6100E0FFBF350B78AB7401F2758200022139022166125DD1AE82AF8378B5EEF208EF49
:204C8100F278FF762A78FFB62A02801DC007C0067413C0E07474C0E07480C0E0120DD4153C
:204CA1008115811581D006D0077800E2B44102801DC007C0067420C0E07474C0E07480C0AE
:204CC100E0120DD4158115811581D006D007C007C0061206C5D006D00778A6E2600FC00744
:204CE100C006124416D006D00778A6E4F2300D17900125E0FB601020000DC20DC007C00602
:204D01001217EAD006D007C007C006125DD178B8E582F208E583F2785E7487F2087404F2E5
:204D21009000B775F060122C23D006D00740030250457899E4F208F278B7E2B40400502A5A
:204D410078B7E2FC7D00C007C006C004C0057436C0E07474C0E07480C0E0122C09E581247B
:204D6100FBF581D006D007024C867882E2700AD2267892E4F2087480F278B7E22487FCE488
:204D81003404FDEC24FCFCED34FFFD9005E7ECF0EDA3F0E4A3F09005EA7404F0E4A3F0907B
:204DA10000AC75F060C007C006126473D006D00778B7E214141414F278AEE2F55E08E2F5D1
:204DC1005F30E73B7894E2B4FF0050117883E2F5F008E245F070067894E22401F27883E4E4
:204DE100F208F278AEE2FC08E2FD53057F8C82C007C006120D01D006D007D22A024C86309C
:204E01002B3F78ADE220E6397894E2B4FF00501E7401255EFCE4355FFD7883E2B5040708C4
:204E2100E2B50502800280067894E22401F278AEE2FC08E2FD788374012CF2E43D08F2D260
:204E41002A78AEE2FC08E2FDC3EC9408ED9400507CC006C007EDCC25E0CC33FDEC2405FC4C
:204E6100ED3401FDC006C005C004122D1AAF82D004D005D0067E0078AEE2FA08E2CA25E081
:204E8100CA33FBEA2405F582EB3401F583E09005F1F0E4A3F0900007C007C006C005C0047D
:204EA10012654BAA82AB83D004D005D006D007EA2FFAEB3EC423CAC423541F6ACA541FCAC7
:204EC1006ACAFB8C828D83EAF0D007D00678A7E22401F208E23400F278ACE2FC08E2541F76
:204EE100FD4C6003024F8E78B7E27003024F8E78B7E2B404028003024F8078AEE2FC08E2B6
:204F0100FDC3EC9408ED94005075C006C00778B7E21414F278B7E22487FAE43404FB7F00FE
:204F21008A828B838FF0126BABFAA3126BABFB7850E2B5020708E2B503028006D007D006B0
:204F4100803DD007D006EDCC25E0CC33FDEC2415FCED3401FD7B009005E77487F07404A3EF
:204F6100F0E4A3F078B79005EAE2F0E4A3F08C828D838BF0C007C006126473D006D007789E
:204F8100A7E224FFF208E234FFF2024C8678ACE2FC08E2541FFD4C7003024C8678ACE2FC9E
:204FA10008E2541FFD7889ECF208EDF278B779B4E2700474018001E4F37582011247837805
:204FC100B8E2FE08E2FF78ADE2C4035401FDBD012278B7C3E2F5F0740195F04003024C8685
:204FE10078B7E2F582C007C006124BD0D006D007024C8678B7E27003024C8678ADE2235417
:205001000124FF920E783A7487F2087404F278B7E2F582C007C0061220B9D006D0075003BA
:20502100024C86300003024C86C29678B7797EE2F3900487C007C006123D3AD006D007D291
:2050410096024C86C007C006125DD178B8E582F208E583F2D006D00778B8E2C39EFC08E227
:205061009FFD8C828D83C005C004124448D004D00578B8E2FE08E2FF788B7990E3F5F0C315
:20508100E295F0FA09E3F5F008E295F0FB7889C3E2F5F0EA95F008E2F5F0EB95F0500302E5
:2050A1004C867882E2B4022A788D7990E3F5F0C3E295F0FA09E3F5F008E295F0FB7889C368
:2050C100E2F5F0EA95F008E2F5F0EB95F05003024C86C006C00778B879B5E3F5F0C3E29546
:2050E100F0FA09E3F5F008E295F0FB7E007F00C3E49A74809BE49EE464808FF063F080958C
:20510100F0D007D006501DC007C006C005C004124AB3D004D005D006D00778B879B5E2F3D6
:2051210008E209F3789FE270030251B7C007C006C005C004122D20AB82D004D005D006D021
:2051410007789FC3E2F5F0EB95F0500B78A0E22CF208E23DF2803E78A0E4F208F278A4E206
:20516100F5F008E245F0702DC007C006126260AC82AD8378A2900601E2F008E2A3F08C82C0
:205181008D831266D4E5828583F0D006D00778A4F208E5F0F278A279A4E3C5F0E225F0FC07
:2051A10009E3C5F008E235F0FD78A0C3E29C08E29D5003024C8678B4E4F2758200C007C0BA
:2051C10006124783E582D006D0077003024C867899E2F5F008E245F06003024C86C007C0DC
:2051E10006122D03D006D007400DC007C006122CEAD006D00750237895E2FC08E2FD7899B4
:20520100ECF208EDF27882E26003024C86D2267892E4F2087480F2024C867850E2F5F00884
:20522100E245F0600B7894E2B414005003024C86C006C0077850E2FC08E2CC25E0CC33FD24
:20524100EC2405FCED3401FD0CBC00010DC007C006C005C004122D20AB82D004D005D00626
:20526100D0077A007850E2FE08E2CE25E0CE33FFEE2405FEEF3401FF8E828F83A3E0900505
:20528100F1F0E4A3F0900003C005C004C003C00212654BAE82AF83D002D003D004D005EEB4
:2052A1002BFEEF3AC313CE13CEC313CE13CE8C828D83EEF0D007D006302C03024C867889B4
:2052C1007995C3E3F5F0E295F009E3F5F008E295F05003024C867889E2FC08E2FD7895E2B1
:2052E100FA08E2CA25E0CA33FBECC39AFCED9BFD30E7047D0080367895E2FB08E2CB25E046
:20530100CB33FC7889E2C39BFB08E29CFC7897900596E2F008E2A3F08B828C83C007C006A2
:20532100125E2EAB82AC83D006D0078B05BD05005003024C86ED24FBFD788FC3E29D5004A6
:20534100788FE2FDC007C006C005124185E5828583F0D005D006D00745F060443028417871
:2053610082E2B4013B788BE2FB08E2C313CB13CBC313CB13CBFC7889C3E29B08E29C5003FA
:20538100024C8690048774FFF078B77401F278ADE24420F2788774FFF20874FFF202548E12
:2053A1007882E2B4020302548A202D0302542DC006C00790058375F000C007C006C0051236
:2053C1006AD0AB82AC83D005D006D0078D027F00C3EA9BEF9CD007D006405190058375F018
:2053E10000C007C006C005126AD0AB8278B7EBF29005E77483F07405A3F0E4A3F09005EA70
:20540100EBF0E4A3F090048775F000126473D005D006D00778ADE24420F278B0E2FB08E202
:20542100FC7887EBF208ECF2C22D806178387487F2087404F28D82C007C006C005121BC17F
:20544100E58278B7F2122062D005D006D007922FE433FC78AD13E292E5F278ADE230E52D0D
:2054610078B0E2FB08E2FC7887EBF208ECF278ABE2FC78AB04F28C82C007C006C0051221D1
:2054810039D005D006D007800478B7E4F278B7798FC3E2F5F0E395F05021C007C006C005DB
:2054A100744BC0E07474C0E07480C0E0120DD4158115811581D005D006D0077882E2B401A8
:2054C10003D38001C3922FE43378AD13E292E6F2C007C006C00512205FD005D006D007925E
:2054E1002FE433FC78AD13E292E7F27882E2600302565078B7E26003025650BD12005003BF
:2055010002565078B2E224FFFC08E234FFFD78A9C3E29C08E29D40030256507850C3E294C8
:205521000808E2940040030256507895E2FC08E2CC25E0CC33FD788BE2C39CFC08E29DFD93
:205541007889C3E29C08E29D400302565078A97950E2F5F0E3B5F00B08E2F5F009E3B5F0F2
:20556100028002800B78A9E22401F208E23400F278B77402F278A9E2FC08E2CC25E0CC33A1
:20558100FDEC2405FCED3401FD0CBC00010D7850E2FA08E2CA25E0CA33FBEA2405FAEB3486
:2055A10001FB8A828B83A3E08C828D83F078A9E2FC08E2CC25E0CC33FDEC2405FCED34015A
:2055C100FD9005E7ECF0EDA3F0E4A3F09005EA7402F0E4A3F090048775F000C007C0061203
:2055E10064739005E774A9F0E4A3F07460A3F09005EA7402F0E4A3F090048975F000126418
:2056010073D006D00778B77404F278A9E22401F208E23400F278A97950E2F5F0E3B5F00B62
:2056210008E2F5F009E3B5F0028002800B78A9E22401F208E23400F278ACE4F208E254E0B8
:20564100F278ADE2547FF278ADE254DFF280537882E2601E78B7E270197882E2B402028084
:2056610003024C867850E2F5F008E245F06003024C8678B7E22404F582C007C006124421B9
:20568100AC82AD83D006D0077889E2C39CFC08E29DFD78ACECF208ED541FF5F0E254E04592
:2056A100F0F27882E2B402267850E2F5F008E245F0701BC007C006120CFBAD82D006D00794
:2056C1007C0043048078AEEDF208ECF2800A78AE7950E3F20809E3F278B7E22487FCE43497
:2056E10004FD7B009005E774ACF0E4A3F07460A3F09005EA7404F0E4A3F08C828D838BF0CC
:20570100C007C006126473D006D00778ADE220E52C78B7E2601E78ACE2FC08E2541FFD4CF6
:205721006012C2967885E2FC08E2FD7887ECF208EDF28009788774FFF20874FFF27882E2E2
:20574100700F78B7E27006D228D2278010C227800C7882E2B401067893E2547FF230282188
:205761007882E2B4011BC22878957999E2F308E2F5F0E325E0C5F033C5F0F309E5F0F38006
:205781000E7895E2FC08E2FD7899ECF208EDF2789BE2FC7D00789CE2FA7B00ECC39AFCED47
:2057A1009BFDBC6405BD0002801F78B7E22404F582C007C006124421AC82AD83D006D0070E
:2057C100789DE22CF208E23DF278B7E22404FD78667487F2087404F27887900479E2F00841
:2057E100E2A3F078897968E2F308E209F38D82C007C006122F65D006D007401078B7E260E6
:205801000BC007C006122065D006D007789FE2600C78A0E4F208F278A4E4F208F2C007C0EB
:2058210006120CD51230BE122FBDD006D00778B7E27003024C8678ACE2FC08E2541FFD4CC3
:205841007003024C86D296024C86A22A22AE82AF8378B274012EF2E43F08F222AE82AF8314
:205861007885EEF208EFF222E58224FF922B22122D26AF829005FDEFF0E4A3F0E4A3F0E4FD
:20588100A3F09003E8E4F5F0126668AC82AD83AEF0FF9005D8ECF0EDA3F0EEA3F0EFA3F089
:2058A10090120075F07AE412630AAC82AD83AEF0FF74082CF560E43DF561E43EF562E43FF8
:2058C100F563AA60E561C4CAC4540F6ACA540FCA6ACAFBE562C454F04BFBAE62E563C4CE5B
:2058E100C4540F6ECE540FCE6ECE7897EAF208EBF29005FDEAF0EBA3F0E4A3F0E4A3F0909F
:205901002710E4F5F0C003C00212666885826485836585F066F5679005FDE560F0E561A362
:20592100F0E562A3F0E563A3F0900271E4F5F0126668AC82AD83AEF0FFD002D003C3E56469
:205941009CE5659DE5669EE5679F500A789774012AF2E43B08F278979005F1E2F008E2A3E8
:20596100F090000D12654BE5828583F07895240DF2E435F008F2300534788F7474F27898EB
:20598100E2F5F018E225E0C5F033C5F0F208E5F0F27897E2FE08E2CE25E0CE33CE25E0CE94
:2059A10033FF7895E22EF208E23FF28005788F74F8F27895E2F56008E2C56025E0C56033F0
:2059C100F5617890E560F208E561F278979005FDE2F008E2A3F0E4A3F0E4A3F0788FE2FA30
:2059E1007B007C007D008A828B838CF0ED12666885826485836585F066F5677895E2F56874
:205A010008E2F569E4F56AF56BE5682564FCE5693565FDE56A3566FEE56B3567FFEC2CF503
:205A210064ED33F565EE33F566EF33F567AA60AB61E4FEFFEA2564FAEB3565FBEE3566FE22
:205A4100EF3567FFE5682AFCE5693BFDE56A3EFEE56B3FFF789FE2603578A27438F20874E7
:205A610001F2784174A8F2087403F208E4F208F27845ECF208EDF208EEF208EFF28C828D34
:205A8100838EF0EF1228C5AC82AD83AEF0FFED54E07006EE7003EF60087CFF7D1F7E007FB8
:205AA10000C3EC94A8ED9461EE9400EF940040087CA87D617E007F00788BECF208EDF2788C
:205AC10097E2F56808E2F569E4F56AF56BE5682568F568E56933F569E56A33F56AE56B338A
:205AE100F56BE5682568F568E56933F569E56A33F56AE56B33F56B7895E2F56408E2F565DF
:205B0100E4F566F567E5642568F568E5653569F569E566356AF56AE567356BF56BE5682569
:205B210068F568E56933F569E56A33F56AE56B33F56BE5682568F568E56933F569E56A3364
:205B4100F56AE56B33F56B7890E2F56008E2F561E4F562F563E5602568F568E5613569F5E8
:205B610069E562356AF56AE563356BF56BE5642568FCE5653569FDE566356AE567356B7829
:205B81008DECF208EDF2785DE27E0024F6FFEE34FFFE90060E7402F0E4A3F08F828E831290
:205BA1006857AE82AF8378979005F1E2F008E2A3F08E828F8312654BAE82AF837895E22E7C
:205BC100F208E23FF2788B7995E3F5F0C3E295F0FE09E3F5F008E295F0FF7897900596E25B
:205BE100F008E2A3F08E828F83125E2EAE82AF83788FE2FC7D00C3EC9EED9F50048C068D67
:205C0100078E8212206878AE74FFF20874FFF2788374FFF20874FFF29005E4E4F09005E546
:205C21007410F0E4A3F090011575F00012644B9005E4E4F09005E57410F0E4A3F090010564
:205C410075F00012644B78AB7413F29005947406F0D295C226227890E2C0E008E2C0E078F1
:205C610050E2C0E008E2C0E07460C0E07474C0E07480C0E0122C09E58124F9F58190000166
:205C8100125D60788BE2C0E008E2C0E07850E2C0E008E2C0E07479C0E07474C0E07480C088
:205CA100E0122C09E58124F9F581900001125D60788FE2FE7F00C006C0077850E2C0E0081E
:1E5CC100E2C0E07493C0E07474C0E07480C0E0122C09E58124F9F581900001025D60F0
:2073A7005B25755D204C2F5220525353493A2025752F257520204C2F52206E6F6973653AE4
:2073C7002025752F25750A005B25755D20706B74733A202575207478653D2575207278653A
:2073E7003D2575207374783D2575207372783D2575206563633D25752F25752074656D7044
:207407003D25642064636F3D25750A00737461636B20626C6F776E0A007064617461206379
:20742700616E617279206368616E6765640A00496E76616C6964206C656E6774682E2E2051
:2074470025750A006F76657273697A65642074646D207061636B6574005B25755D2073695B
:207467006C656E63655F706572696F643A2025750A005B25755D2074785F77696E646F77C9
:207487005F77696474683A2025750A005B25755D206D61785F646174615F7061636B6574E0
:0D74A7005F6C656E6774683A2025750A00F9
:205CDF00C027C0E0C0F0C082C083C007C006C005C004C003C002C001C000C0D075D0007583
:205CFF0091041205CEE56C6002156CD0D0D000D001D002D003D004D005D006D007D083D078
:205D1F0082D0F0D0E0D02732AE82AF83C3EE94F6EF94094004756CFF2274092EFEE43FFF0F
:205D3F00900596740AF0E4A3F08E828F83125E2EAE828E6C2285826C22E56CB401009230CB
:205D5F0022125D27125D5850FB22C027C0E0C0F0C082C083C007C006C005C004C003C002E1
:205D7F00C001C000C0D075D00075C8047401256DF56DE4356EF56E300703123C29D0D0D0F9
:205D9F0000D001D002D003D004D005D006D007D083D082D0F0D0E0D02732AFCDAECCEFB540
:205DBF00CDF88F05E4FFFCEE4207EC42058F828D8322AE6DAF6EC007C006125DB9AC82AD17
:205DDF0083D006D007EEB56DE9EFB56EE5EEC40354F8FF7E00EDC403CCC40354076CCC54D8
:205DFF0007CC6CCCFDEC4206ED42078E828F832275A7007592407593B075910443E680758B
:0F5E1F00CA0075CB0075C804D2AD2285CC822293
:205E2E00AF83E582900598F0EFA3F090059AE4F0E4A3F0900596E0FEA3E0FF7D109005985D
:205E4E00E0FBA3E0FC339231ECCB25E0CB33FC900598EBF0ECA3F090059AE0FBA3E0CB252A
:205E6E00E0CB33FC90059AEBF0ECA3F030311290059AE0FBA3E0FC90059A74014BF0ECA347
:205E8E00F090059AE0FBA3E0FCC3EB9EEC9F401D90059AEBC39EF0EC9FA3F0900598E0FBB6
:1B5EAE00A3E0FC90059874014BF0ECA3F0DD8E900598E0FEA3E08E82F583225B
:205EC900AF82AE83ADF0FC9005A0EFF0EEA3F0EDA3F0ECA3F090059FE0FF7E209005A0E064
:205EE900FAA3E0FBA3E0FCA3E0FD8F6F7570007571007572009005CDE56FF0E570A3F0E5FF
:205F090071A3F0E572A3F08A828B838CF0EDC007C00612607CAA82AB83D006D00774302AB7
:205F2900FD9005C4F08D04EC24C650079005C474072DF01EEE24A4FCE43405FD9005C4E040
:205F49008C828D83F09005A0E0FAA3E0FBA3E0FCA3E0FD9005D8E56FF0E570A3F0E571A30C
:205F6900F0E572A3F08A828B838CF0EDC007C00612630AAA82AB83ACF0FDD006D00790057A
:205F8900A0EAF0EBA3F0ECA3F0EDA3F09005A0E0FAA3E0FBA3E0FCA3E0FDEA4B4C4D600344
:205FA900025EE590059CE0FCA3E0FDA3E0FFEE24A4F582E43405F583E0FB8C828D838FF04A
:205FC900126500A3AC82AD830EBE20E28C828D838FF0E4026500AF82AE83ADF0FC9005C931
:205FE900EFF0EEA3F0EDA3F0ECA3F09005C9E0FCA3E0FDA3E0FEA3E0FF30E73F9005C8E0E9
:20600900FBBB0A379005C5E0F9A3E0FAA3E0FB89828A838BF0742D1265009005C5740129AF
:20602900F0E43AA3F0EBA3F09005C9C3E49CF0E49DA3F0E49EA3F0E49FA3F09005C9E0FC2E
:20604900A3E0FDA3E0FEA3E0FF9005C5E0F9A3E0FAA3E0FB9005C8E0F890059CE9F0EAA3BA
:13606900F0EBA3F090059FE8F08C828D838EF0EF025EC9F6
:20607C00AF82AE83ADF0FC9005D1EFF0EEA3F0EDA3F0ECA3F09005D5E4F09005D1E0FCA321
:20609C00E0FDA3E0FEA3E0FF7B009005CDE0F573A3E0F574A3E0F575A3E0F576235401FAA6
:2060BC007074C003E5732573F8E57433F9E57533FAE57633FB9005CDE8F0E9A3F0EAA3F06D
:2060DC00EBA3F09005CDE0F573A3E0F574A3E0F575A3E0F576C3EC9573ED9574EE9575EF21
:2060FC009576D0035027E576C313F576E57513F575E57413F574E57313F5739005CDF0E5DD
:20611C0074A3F0E575A3F0E576A3F080090B9005D5EBF00260A69005D5E0FF9005D1E0FB16
:20613C00A3E0FCA3E0FDA3E0FE9005CDE0F573A3E0F574A3E0F575A3E0F576C3EB9573ECB0
:20615C009574ED9575EE957640179005D1EBC39573F0EC9574A3F0ED9575A3F0EE9576A319
:20617C00F09005CDE0FBA3E0FCA3E0FDA3E0C313FEED13FDEC13FCEB13FB9005CDF0ECA3AE
:20619C00F0EDA3F0EEA3F08F061FEE708E9005D1E0FCA3E0FDA3E0FEA3E08C828D838EF0F0
:0161BC0022C0
:2061BD001262DCBC0003026A88EF60FA30D502B2D1E583B4FF03026A9EE582B4FF03026A3B
:2061DD009E258340072482400B026A882483145003026A9EF582EA8DF0A4A8F0EA8EF0A4F2
:2061FD0028F8E435F0F9EB8DF0A428E935F0F9E433CA8FF0A429F9EA35F0FAEBF88EF0A4F1
:20621D0029F9EA35F0FAE433FBEC8DF0A429F9EA35F0FAE43BFBE88FF0A42AFAEB35F0FB98
:20623D00E433CCFD8EF0A42AFAEB35F0FBE43CFCED8FF0A42BFBEC35F0FC20E70312641819
:03625D00026A676B
:20626000900C17E0FCA3E0FDA3E0FEA3E0FF9005FDECF0EDA3F0EEA3F0EFA3F0904E6D755B
:20628000F0C67441126668AC82AD83AEF0FF900C1774392CF074303DA3F0E43EA3F0E43FF0
:2062A000A3F0900C17E0A3E0A3E0FEA3E0FF8E048F0553057F8C828D8322AF83E5829005C7
:1C62C000D6F0EFA3F09005D6E0FEA3E0FF900C17EEF0EFA3F0E4A3F0E4A3F0228C
:047AB40001000000CD
:2062DC00AA82AB83A2F73392D1F5826002D2F7ACF0E58124F9F8E6FD08E6FE0886F008E625
:0E62FC00A2F73392D5F5836002D2F7AFF022FD
:20630A00AF82AE83ADF0FC9005DCEFF0EEA3F0EDA3F0ECA3F09005E0E4F0E4A3F0E4A3F071
:20632A00E4A3F09005D8E0FCA3E0FDA3E0FEA3E0FF7573209005DCE0F8A3E0F9A3E0FAA323
:20634A00E0FB339232E828F8E933F9EA33FAEB33FB9005DCE8F0E9A3F0EAA3F0EBA3F090C4
:20636A0005E0E0F8A3E0F9A3E0FAA3E0FBE828F8E933F9EA33FAEB33FB9005E0E8F0E9A3B9
:20638A00F0EAA3F0EBA3F030321E9005E0E0F8A3E0F9A3E0FAA3E0FB9005E0740148F0E9B9
:2063AA00A3F0EAA3F0EBA3F09005E0E0F8A3E0F9A3E0FAA3E0FBC3E89CE99DEA9EEB9F4062
:2063CA00319005E0E8C39CF0E99DA3F0EA9EA3F0EB9FA3F09005DCE0F8A3E0F9A3E0FAA3A0
:2063EA00E0FB9005DC740148F0E9A3F0EAA3F0EBA3F0D57302800302633E9005DCE0FCA3C3
:0E640A00E0FDA3E0FEA3E08C828D838EF022E5
:0604A800E478FFF6D8FD28
:206418007804EC7011E58224F8500AF582E4C9CACBFCD8EF22EC7820058220E713D5820183
:1364380022C3E933F9EA33FAEB33FBEC33FCD8EA15822291
:20644B00AC82AD839005E5E0FEA3E0FFBE000360121F0F9005E4E08C828D83126500A3DE29
:08646B00FADFF88C828D832218
:20647300AFF0AE83E5829005ECF0EEA3F0EFA3F09005ECE0F573A3E0F574A3E0F575AA739F
:20649300AB74AC759005E7E0F8A3E0F9A3E0FF9005EAE0F576A3E0F577AD76AE7715767457
